{
  "address": "0x5FbDB2315678afecb367f032d93F642f64180aa3",
  "abi": [
    {
      "inputs": [],
      "stateMutability": "nonpayable",
      "type": "constructor"
    },
    {
      "inputs": [
        {
          "internalType": "uint256",
          "name": "",
          "type": "uint256"
        }
      ],
      "name": "VerifiedHash",
      "outputs": [
        {
          "internalType": "bytes32",
          "name": "hashValue",
          "type": "bytes32"
        },
        {
          "internalType": "bool",
          "name": "status",
          "type": "bool"
        }
      ],
      "stateMutability": "view",
      "type": "function"
    },
    {
      "inputs": [
        {
          "internalType": "string",
          "name": "_username",
          "type": "string"
        },
        {
          "internalType": "address",
          "name": "_address",
          "type": "address"
        },
        {
          "internalType": "string",
          "name": "_email",
          "type": "string"
        },
        {
          "internalType": "string",
          "name": "_qualification",
          "type": "string"
        },
        {
          "internalType": "string",
          "name": "_yearPO",
          "type": "string"
        }
      ],
      "name": "addCandidateUser",
      "outputs": [],
      "stateMutability": "nonpayable",
      "type": "function"
    },
    {
      "inputs": [
        {
          "internalType": "string",
          "name": "_username",
          "type": "string"
        },
        {
          "internalType": "address",
          "name": "_address",
          "type": "address"
        },
        {
          "internalType": "string",
          "name": "_email",
          "type": "string"
        },
        {
          "internalType": "string",
          "name": "_company",
          "type": "string"
        }
      ],
      "name": "addRecruiterUser",
      "outputs": [],
      "stateMutability": "nonpayable",
      "type": "function"
    },
    {
      "inputs": [
        {
          "internalType": "uint256",
          "name": "",
          "type": "uint256"
        }
      ],
      "name": "arrHash",
      "outputs": [
        {
          "internalType": "bytes32",
          "name": "",
          "type": "bytes32"
        }
      ],
      "stateMutability": "view",
      "type": "function"
    },
    {
      "inputs": [
        {
          "internalType": "uint256",
          "name": "",
          "type": "uint256"
        }
      ],
      "name": "candidate",
      "outputs": [
        {
          "internalType": "string",
          "name": "name",
          "type": "string"
        },
        {
          "internalType": "address",
          "name": "add",
          "type": "address"
        },
        {
          "internalType": "string",
          "name": "email",
          "type": "string"
        },
        {
          "internalType": "string",
          "name": "qualification",
          "type": "string"
        },
        {
          "internalType": "string",
          "name": "yearPO",
          "type": "string"
        }
      ],
      "stateMutability": "view",
      "type": "function"
    },
    {
      "inputs": [
        {
          "internalType": "string",
          "name": "_username",
          "type": "string"
        },
        {
          "internalType": "address",
          "name": "_address",
          "type": "address"
        }
      ],
      "name": "candidateValidate",
      "outputs": [
        {
          "internalType": "bool",
          "name": "",
          "type": "bool"
        }
      ],
      "stateMutability": "view",
      "type": "function"
    },
    {
      "inputs": [
        {
          "internalType": "address",
          "name": "_address",
          "type": "address"
        }
      ],
      "name": "getArray",
      "outputs": [
        {
          "components": [
            {
              "internalType": "string",
              "name": "docName",
              "type": "string"
            },
            {
              "internalType": "bytes32",
              "name": "docHash",
              "type": "bytes32"
            },
            {
              "internalType": "string",
              "name": "ipfs",
              "type": "string"
            }
          ],
          "internalType": "struct Ebv.document[]",
          "name": "",
          "type": "tuple[]"
        }
      ],
      "stateMutability": "view",
      "type": "function"
    },
    {
      "inputs": [],
      "name": "getCandidate",
      "outputs": [
        {
          "components": [
            {
              "internalType": "string",
              "name": "name",
              "type": "string"
            },
            {
              "internalType": "address",
              "name": "add",
              "type": "address"
            },
            {
              "internalType": "string",
              "name": "email",
              "type": "string"
            },
            {
              "internalType": "string",
              "name": "qualification",
              "type": "string"
            },
            {
              "internalType": "string",
              "name": "yearPO",
              "type": "string"
            }
          ],
          "internalType": "struct Ebv.user[]",
          "name": "",
          "type": "tuple[]"
        }
      ],
      "stateMutability": "view",
      "type": "function"
    },
    {
      "inputs": [
        {
          "internalType": "address",
          "name": "_address",
          "type": "address"
        }
      ],
      "name": "getNonVerifiedDocuments",
      "outputs": [
        {
          "components": [
            {
              "internalType": "string",
              "name": "docName",
              "type": "string"
            },
            {
              "internalType": "bytes32",
              "name": "docHash",
              "type": "bytes32"
            },
            {
              "internalType": "string",
              "name": "ipfs",
              "type": "string"
            }
          ],
          "internalType": "struct Ebv.document[]",
          "name": "",
          "type": "tuple[]"
        }
      ],
      "stateMutability": "view",
      "type": "function"
    },
    {
      "inputs": [
        {
          "internalType": "address",
          "name": "_address",
          "type": "address"
        }
      ],
      "name": "getRCandidate",
      "outputs": [
        {
          "components": [
            {
              "internalType": "string",
              "name": "name",
              "type": "string"
            },
            {
              "internalType": "address",
              "name": "add",
              "type": "address"
            },
            {
              "internalType": "string",
              "name": "email",
              "type": "string"
            },
            {
              "internalType": "string",
              "name": "qualification",
              "type": "string"
            },
            {
              "internalType": "string",
              "name": "yearPO",
              "type": "string"
            }
          ],
          "internalType": "struct Ebv.user",
          "name": "",
          "type": "tuple"
        }
      ],
      "stateMutability": "view",
      "type": "function"
    },
    {
      "inputs": [
        {
          "internalType": "address",
          "name": "_address",
          "type": "address"
        }
      ],
      "name": "getRRecruiter",
      "outputs": [
        {
          "components": [
            {
              "internalType": "string",
              "name": "name",
              "type": "string"
            },
            {
              "internalType": "address",
              "name": "add",
              "type": "address"
            },
            {
              "internalType": "string",
              "name": "email",
              "type": "string"
            },
            {
              "internalType": "string",
              "name": "company",
              "type": "string"
            }
          ],
          "internalType": "struct Ebv.user2",
          "name": "",
          "type": "tuple"
        }
      ],
      "stateMutability": "view",
      "type": "function"
    },
    {
      "inputs": [
        {
          "internalType": "string",
          "name": "_name",
          "type": "string"
        }
      ],
      "name": "getRbnCandidate",
      "outputs": [
        {
          "components": [
            {
              "internalType": "string",
              "name": "name",
              "type": "string"
            },
            {
              "internalType": "address",
              "name": "add",
              "type": "address"
            },
            {
              "internalType": "string",
              "name": "email",
              "type": "string"
            },
            {
              "internalType": "string",
              "name": "qualification",
              "type": "string"
            },
            {
              "internalType": "string",
              "name": "yearPO",
              "type": "string"
            }
          ],
          "internalType": "struct Ebv.user",
          "name": "",
          "type": "tuple"
        }
      ],
      "stateMutability": "view",
      "type": "function"
    },
    {
      "inputs": [],
      "name": "getToBeVerified",
      "outputs": [
        {
          "internalType": "bytes32[]",
          "name": "",
          "type": "bytes32[]"
        }
      ],
      "stateMutability": "view",
      "type": "function"
    },
    {
      "inputs": [
        {
          "internalType": "address",
          "name": "_address",
          "type": "address"
        }
      ],
      "name": "getVerifiedDocuments",
      "outputs": [
        {
          "components": [
            {
              "internalType": "string",
              "name": "docName",
              "type": "string"
            },
            {
              "internalType": "bytes32",
              "name": "docHash",
              "type": "bytes32"
            },
            {
              "internalType": "string",
              "name": "ipfs",
              "type": "string"
            }
          ],
          "internalType": "struct Ebv.document[]",
          "name": "",
          "type": "tuple[]"
        }
      ],
      "stateMutability": "view",
      "type": "function"
    },
    {
      "inputs": [
        {
          "internalType": "bytes32",
          "name": "_docHash",
          "type": "bytes32"
        }
      ],
      "name": "hashArray",
      "outputs": [],
      "stateMutability": "nonpayable",
      "type": "function"
    },
    {
      "inputs": [
        {
          "internalType": "bytes32",
          "name": "_hash",
          "type": "bytes32"
        }
      ],
      "name": "hashVerify",
      "outputs": [],
      "stateMutability": "nonpayable",
      "type": "function"
    },
    {
      "inputs": [],
      "name": "i_owner",
      "outputs": [
        {
          "internalType": "address",
          "name": "",
          "type": "address"
        }
      ],
      "stateMutability": "view",
      "type": "function"
    },
    {
      "inputs": [],
      "name": "i_ownerName",
      "outputs": [
        {
          "internalType": "string",
          "name": "",
          "type": "string"
        }
      ],
      "stateMutability": "view",
      "type": "function"
    },
    {
      "inputs": [
        {
          "internalType": "string",
          "name": "_username",
          "type": "string"
        },
        {
          "internalType": "address",
          "name": "_address",
          "type": "address"
        }
      ],
      "name": "ownerValidate",
      "outputs": [
        {
          "internalType": "bool",
          "name": "",
          "type": "bool"
        }
      ],
      "stateMutability": "view",
      "type": "function"
    },
    {
      "inputs": [
        {
          "internalType": "uint256",
          "name": "",
          "type": "uint256"
        }
      ],
      "name": "recruiter",
      "outputs": [
        {
          "internalType": "string",
          "name": "name",
          "type": "string"
        },
        {
          "internalType": "address",
          "name": "add",
          "type": "address"
        },
        {
          "internalType": "string",
          "name": "email",
          "type": "string"
        },
        {
          "internalType": "string",
          "name": "company",
          "type": "string"
        }
      ],
      "stateMutability": "view",
      "type": "function"
    },
    {
      "inputs": [
        {
          "internalType": "string",
          "name": "_username",
          "type": "string"
        },
        {
          "internalType": "address",
          "name": "_address",
          "type": "address"
        }
      ],
      "name": "recruiterValidate",
      "outputs": [
        {
          "internalType": "bool",
          "name": "",
          "type": "bool"
        }
      ],
      "stateMutability": "view",
      "type": "function"
    },
    {
      "inputs": [
        {
          "internalType": "string",
          "name": "_docName",
          "type": "string"
        },
        {
          "internalType": "bytes32",
          "name": "_docHash",
          "type": "bytes32"
        },
        {
          "internalType": "string",
          "name": "_ipfs",
          "type": "string"
        }
      ],
      "name": "uplodeCandidateDocument",
      "outputs": [],
      "stateMutability": "nonpayable",
      "type": "function"
    },
    {
      "inputs": [
        {
          "internalType": "address",
          "name": "",
          "type": "address"
        },
        {
          "internalType": "uint256",
          "name": "",
          "type": "uint256"
        }
      ],
      "name": "userData",
      "outputs": [
        {
          "internalType": "string",
          "name": "docName",
          "type": "string"
        },
        {
          "internalType": "bytes32",
          "name": "docHash",
          "type": "bytes32"
        },
        {
          "internalType": "string",
          "name": "ipfs",
          "type": "string"
        }
      ],
      "stateMutability": "view",
      "type": "function"
    }
  ],
  "transactionHash": "0x5ad8d9232914ee6d1b9b472455b69e50ceb3d7c5c8b0591da09ea58c95c910bc",
  "args": [],
  "numDeployments": 1,
  "solcInputHash": "b2a5f28fb6438a723005ad71cd1629db",
  "bytecode": "0x60a06040526040518060400160405280600781526020017f6268617261746800000000000000000000000000000000000000000000000000815250600190816200004a91906200030d565b503480156200005857600080fd5b503373ffffffffffffffffffffffffffffffffffffffff1660808173ffffffffffffffffffffffffffffffffffffffff1681525050620003f4565b600081519050919050565b7f4e487b7100000000000000000000000000000000000000000000000000000000600052604160045260246000fd5b7f4e487b7100000000000000000000000000000000000000000000000000000000600052602260045260246000fd5b600060028204905060018216806200011557607f821691505b6020821081036200012b576200012a620000cd565b5b50919050565b60008190508160005260206000209050919050565b60006020601f8301049050919050565b600082821b905092915050565b600060088302620001957fffffffffffffffffffffffffffffffffffffffffffffffffffffffffffffffff8262000156565b620001a1868362000156565b95508019841693508086168417925050509392505050565b6000819050919050565b6000819050919050565b6000620001ee620001e8620001e284620001b9565b620001c3565b620001b9565b9050919050565b6000819050919050565b6200020a83620001cd565b620002226200021982620001f5565b84845462000163565b825550505050565b600090565b620002396200022a565b62000246818484620001ff565b505050565b5b818110156200026e57620002626000826200022f565b6001810190506200024c565b5050565b601f821115620002bd57620002878162000131565b620002928462000146565b81016020851015620002a2578190505b620002ba620002b18562000146565b8301826200024b565b50505b505050565b600082821c905092915050565b6000620002e260001984600802620002c2565b1980831691505092915050565b6000620002fd8383620002cf565b9150826002028217905092915050565b620003188262000093565b67ffffffffffffffff8111156200033457620003336200009e565b5b620003408254620000fc565b6200034d82828562000272565b600060209050601f83116001811462000385576000841562000370578287015190505b6200037c8582620002ef565b865550620003ec565b601f198416620003958662000131565b60005b82811015620003bf5784890151825560018201915060208501945060208101905062000398565b86831015620003df5784890151620003db601f891682620002cf565b8355505b6001600288020188555050505b505050505050565b608051613d7b6200041760003960008181611dcd01526124b40152613d7b6000f3fe608060405234801561001057600080fd5b506004361061014d5760003560e01c8063776d2c4b116100c3578063c496c8991161007c578063c496c89914610418578063ce88f98014610434578063dba6335f14610452578063e09407dd14610470578063f277905c146104a0578063f3dede14146104d05761014d565b8063776d2c4b1461032057806399b07b8e14610350578063bf95292a1461036c578063bfb3259f1461039c578063c0d37c70146103cc578063c3056096146103fc5761014d565b80633c05eca1116101155780633c05eca114610233578063479797a7146102655780634fd743891461029557806366dee8bc146102b157806370218b85146102cf5780637366e8ca146102ed5761014d565b8063197d1612146101525780631de43c4b1461018257806323ad434a146101b6578063253a1425146101d257806335d9647a14610203575b600080fd5b61016c60048036038101906101679190612c00565b610500565b6040516101799190612def565b60405180910390f35b61019c60048036038101906101979190612e47565b6106a8565b6040516101ad959493929190612ecd565b60405180910390f35b6101d060048036038101906101cb919061309d565b61092e565b005b6101ec60048036038101906101e79190612e47565b610abc565b6040516101fa929190613152565b60405180910390f35b61021d60048036038101906102189190612c00565b610afd565b60405161022a9190613215565b60405180910390f35b61024d60048036038101906102489190613237565b610f8d565b60405161025c93929190613277565b60405180910390f35b61027f600480360381019061027a9190612c00565b6110e4565b60405161028c9190612def565b60405180910390f35b6102af60048036038101906102aa91906132bc565b6112af565b005b6102b961144e565b6040516102c69190613426565b60405180910390f35b6102d761155a565b6040516102e49190613595565b60405180910390f35b61030760048036038101906103029190612e47565b611857565b60405161031794939291906135b7565b60405180910390f35b61033a60048036038101906103359190612c00565b611a4f565b6040516103479190612def565b60405180910390f35b61036a60048036038101906103659190613611565b611bf6565b005b610386600480360381019061038191906136fc565b611db2565b6040516103939190613758565b60405180910390f35b6103b660048036038101906103b19190613773565b611e69565b6040516103c39190613215565b60405180910390f35b6103e660048036038101906103e19190612e47565b6122f8565b6040516103f391906137bc565b60405180910390f35b610416600480360381019061041191906137d7565b61231c565b005b610432600480360381019061042d91906137d7565b6123f8565b005b61043c612424565b6040516104499190613804565b60405180910390f35b61045a6124b2565b6040516104679190613826565b60405180910390f35b61048a600480360381019061048591906136fc565b6124d6565b6040516104979190613758565b60405180910390f35b6104ba60048036038101906104b591906136fc565b6125fd565b6040516104c79190613758565b60405180910390f35b6104ea60048036038101906104e59190612c00565b612724565b6040516104f791906138b2565b60405180910390f35b6060600061050d836110e4565b90506000815167ffffffffffffffff81111561052c5761052b612f46565b5b60405190808252806020026020018201604052801561056557816020015b610552612ae7565b81526020019060019003908161054a5790505b50905060008060005b8451811015610698576000915060005b6005805490508110156106345785828151811061059e5761059d6138d4565b5b602002602001015160200151600582815481106105be576105bd6138d4565b5b906000526020600020906002020160000154148015610613575060011515600582815481106105f0576105ef6138d4565b5b906000526020600020906002020160010160009054906101000a900460ff161515145b156106215760019250610634565b808061062c90613932565b91505061057e565b5060018203610685578481815181106106505761064f6138d4565b5b602002602001015184848151811061066b5761066a6138d4565b5b6020026020010181905250828061068190613932565b9350505b808061069090613932565b91505061056e565b5081835282945050505050919050565b600281815481106106b857600080fd5b90600052602060002090600502016000915090508060000180546106db906139a9565b80601f0160208091040260200160405190810160405280929190818152602001828054610707906139a9565b80156107545780601f1061072957610100808354040283529160200191610754565b820191906000526020600020905b81548152906001019060200180831161073757829003601f168201915b5050505050908060010160009054906101000a900473ffffffffffffffffffffffffffffffffffffffff169080600201805461078f906139a9565b80601f01602080910402602001604051908101604052809291908181526020018280546107bb906139a9565b80156108085780601f106107dd57610100808354040283529160200191610808565b820191906000526020600020905b8154815290600101906020018083116107eb57829003601f168201915b50505050509080600301805461081d906139a9565b80601f0160208091040260200160405190810160405280929190818152602001828054610849906139a9565b80156108965780601f1061086b57610100808354040283529160200191610896565b820191906000526020600020905b81548152906001019060200180831161087957829003601f168201915b5050505050908060040180546108ab906139a9565b80601f01602080910402602001604051908101604052809291908181526020018280546108d7906139a9565b80156109245780601f106108f957610100808354040283529160200191610924565b820191906000526020600020905b81548152906001019060200180831161090757829003601f168201915b5050505050905085565b6000803373ffffffffffffffffffffffffffffffffffffffff1673ffffffffffffffffffffffffffffffffffffffff168152602001908152602001600020604051806060016040528085815260200184815260200183815250908060018154018082558091505060019003906000526020600020906003020160009091909190915060008201518160000190816109c59190613b86565b506020820151816001015560408201518160020190816109e59190613b86565b5050506000805b600580549050811015610a3d578360058281548110610a0e57610a0d6138d4565b5b90600052602060002090600202016000015403610a2a57600191505b8080610a3590613932565b9150506109ec565b5060008103610ab657600560405180604001604052808581526020016000151581525090806001815401808255809150506001900390600052602060002090600202016000909190919091506000820151816000015560208201518160010160006101000a81548160ff02191690831515021790555050505b50505050565b60058181548110610acc57600080fd5b90600052602060002090600202016000915090508060000154908060010160009054906101000a900460ff16905082565b610b05612b0b565b60005b600280549050811015610e73578273ffffffffffffffffffffffffffffffffffffffff1660028281548110610b4057610b3f6138d4565b5b906000526020600020906005020160010160009054906101000a900473ffffffffffffffffffffffffffffffffffffffff1673ffffffffffffffffffffffffffffffffffffffff1603610e605760028181548110610ba157610ba06138d4565b5b90600052602060002090600502016040518060a0016040529081600082018054610bca906139a9565b80601f0160208091040260200160405190810160405280929190818152602001828054610bf6906139a9565b8015610c435780601f10610c1857610100808354040283529160200191610c43565b820191906000526020600020905b815481529060010190602001808311610c2657829003601f168201915b505050505081526020016001820160009054906101000a900473ffffffffffffffffffffffffffffffffffffffff1673ffffffffffffffffffffffffffffffffffffffff1673ffffffffffffffffffffffffffffffffffffffff168152602001600282018054610cb2906139a9565b80601f0160208091040260200160405190810160405280929190818152602001828054610cde906139a9565b8015610d2b5780601f10610d0057610100808354040283529160200191610d2b565b820191906000526020600020905b815481529060010190602001808311610d0e57829003601f168201915b50505050508152602001600382018054610d44906139a9565b80601f0160208091040260200160405190810160405280929190818152602001828054610d70906139a9565b8015610dbd5780601f10610d9257610100808354040283529160200191610dbd565b820191906000526020600020905b815481529060010190602001808311610da057829003601f168201915b50505050508152602001600482018054610dd6906139a9565b80601f0160208091040260200160405190810160405280929190818152602001828054610e02906139a9565b8015610e4f5780601f10610e2457610100808354040283529160200191610e4f565b820191906000526020600020905b815481529060010190602001808311610e3257829003601f168201915b505050505081525050915050610f88565b8080610e6b90613932565b915050610b08565b506040518060a001604052806040518060400160405280600481526020017f6e6f6e650000000000000000000000000000000000000000000000000000000081525081526020013373ffffffffffffffffffffffffffffffffffffffff1681526020016040518060400160405280600481526020017f6e6f6e650000000000000000000000000000000000000000000000000000000081525081526020016040518060400160405280600481526020017f6e6f6e650000000000000000000000000000000000000000000000000000000081525081526020016040518060400160405280600181526020017f300000000000000000000000000000000000000000000000000000000000000081525081525090505b919050565b60006020528160005260406000208181548110610fa957600080fd5b906000526020600020906003020160009150915050806000018054610fcd906139a9565b80601f0160208091040260200160405190810160405280929190818152602001828054610ff9906139a9565b80156110465780601f1061101b57610100808354040283529160200191611046565b820191906000526020600020905b81548152906001019060200180831161102957829003601f168201915b505050505090806001015490806002018054611061906139a9565b80601f016020809104026020016040519081016040528092919081815260200182805461108d906139a9565b80156110da5780601f106110af576101008083540402835291602001916110da565b820191906000526020600020905b8154815290600101906020018083116110bd57829003601f168201915b5050505050905083565b60606000808373ffffffffffffffffffffffffffffffffffffffff1673ffffffffffffffffffffffffffffffffffffffff168152602001908152602001600020805480602002602001604051908101604052809291908181526020016000905b828210156112a45783829060005260206000209060030201604051806060016040529081600082018054611177906139a9565b80601f01602080910402602001604051908101604052809291908181526020018280546111a3906139a9565b80156111f05780601f106111c5576101008083540402835291602001916111f0565b820191906000526020600020905b8154815290600101906020018083116111d357829003601f168201915b5050505050815260200160018201548152602001600282018054611213906139a9565b80601f016020809104026020016040519081016040528092919081815260200182805461123f906139a9565b801561128c5780601f106112615761010080835404028352916020019161128c565b820191906000526020600020905b81548152906001019060200180831161126f57829003601f168201915b50505050508152505081526020019060010190611144565b505050509050919050565b6000805b600380549050811015611350578473ffffffffffffffffffffffffffffffffffffffff16600382815481106112eb576112ea6138d4565b5b906000526020600020906004020160010160009054906101000a900473ffffffffffffffffffffffffffffffffffffffff1673ffffffffffffffffffffffffffffffffffffffff160361133d57600191505b808061134890613932565b9150506112b3565b506000810361144757600360405180608001604052808781526020018673ffffffffffffffffffffffffffffffffffffffff16815260200185815260200184815250908060018154018082558091505060019003906000526020600020906004020160009091909190915060008201518160000190816113d09190613b86565b5060208201518160010160006101000a81548173ffffffffffffffffffffffffffffffffffffffff021916908373ffffffffffffffffffffffffffffffffffffffff160217905550604082015181600201908161142d9190613b86565b5060608201518160030190816114439190613b86565b5050505b5050505050565b6060600060058054905067ffffffffffffffff81111561147157611470612f46565b5b60405190808252806020026020018201604052801561149f5781602001602082028036833780820191505090505b5090506000805b60058054905081101561155157600581815481106114c7576114c66138d4565b5b906000526020600020906002020160010160009054906101000a900460ff1661153e57600581815481106114fe576114fd6138d4565b5b906000526020600020906002020160000154838381518110611523576115226138d4565b5b602002602001018181525050818061153a90613932565b9250505b808061154990613932565b9150506114a6565b50819250505090565b60606002805480602002602001604051908101604052809291908181526020016000905b8282101561184e57838290600052602060002090600502016040518060a00160405290816000820180546115b1906139a9565b80601f01602080910402602001604051908101604052809291908181526020018280546115dd906139a9565b801561162a5780601f106115ff5761010080835404028352916020019161162a565b820191906000526020600020905b81548152906001019060200180831161160d57829003601f168201915b505050505081526020016001820160009054906101000a900473ffffffffffffffffffffffffffffffffffffffff1673ffffffffffffffffffffffffffffffffffffffff1673ffffffffffffffffffffffffffffffffffffffff168152602001600282018054611699906139a9565b80601f01602080910402602001604051908101604052809291908181526020018280546116c5906139a9565b80156117125780601f106116e757610100808354040283529160200191611712565b820191906000526020600020905b8154815290600101906020018083116116f557829003601f168201915b5050505050815260200160038201805461172b906139a9565b80601f0160208091040260200160405190810160405280929190818152602001828054611757906139a9565b80156117a45780601f10611779576101008083540402835291602001916117a4565b820191906000526020600020905b81548152906001019060200180831161178757829003601f168201915b505050505081526020016004820180546117bd906139a9565b80601f01602080910402602001604051908101604052809291908181526020018280546117e9906139a9565b80156118365780601f1061180b57610100808354040283529160200191611836565b820191906000526020600020905b81548152906001019060200180831161181957829003601f168201915b5050505050815250508152602001906001019061157e565b50505050905090565b6003818154811061186757600080fd5b906000526020600020906004020160009150905080600001805461188a906139a9565b80601f01602080910402602001604051908101604052809291908181526020018280546118b6906139a9565b80156119035780601f106118d857610100808354040283529160200191611903565b820191906000526020600020905b8154815290600101906020018083116118e657829003601f168201915b5050505050908060010160009054906101000a900473ffffffffffffffffffffffffffffffffffffffff169080600201805461193e906139a9565b80601f016020809104026020016040519081016040528092919081815260200182805461196a906139a9565b80156119b75780601f1061198c576101008083540402835291602001916119b7565b820191906000526020600020905b81548152906001019060200180831161199a57829003601f168201915b5050505050908060030180546119cc906139a9565b80601f01602080910402602001604051908101604052809291908181526020018280546119f8906139a9565b8015611a455780601f10611a1a57610100808354040283529160200191611a45565b820191906000526020600020905b815481529060010190602001808311611a2857829003601f168201915b5050505050905084565b60606000611a5c836110e4565b90506000815167ffffffffffffffff811115611a7b57611a7a612f46565b5b604051908082528060200260200182016040528015611ab457816020015b611aa1612ae7565b815260200190600190039081611a995790505b50905060008080600090505b8451811015611be6576000915060005b600580549050811015611b8257858281518110611af057611aef6138d4565b5b60200260200101516020015160058281548110611b1057611b0f6138d4565b5b906000526020600020906002020160000154148015611b6557506001151560058281548110611b4257611b416138d4565b5b906000526020600020906002020160010160009054906101000a900460ff161515145b15611b6f57600192505b8080611b7a90613932565b915050611ad0565b5060008203611bd357848181518110611b9e57611b9d6138d4565b5b6020026020010151848481518110611bb957611bb86138d4565b5b60200260200101819052508280611bcf90613932565b9350505b8080611bde90613932565b915050611ac0565b5081835282945050505050919050565b6000805b600280549050811015611c97578573ffffffffffffffffffffffffffffffffffffffff1660028281548110611c3257611c316138d4565b5b906000526020600020906005020160010160009054906101000a900473ffffffffffffffffffffffffffffffffffffffff1673ffffffffffffffffffffffffffffffffffffffff1603611c8457600191505b8080611c8f90613932565b915050611bfa565b5060008103611daa5760026040518060a001604052808881526020018773ffffffffffffffffffffffffffffffffffffffff1681526020018681526020018581526020018481525090806001815401808255809150506001900390600052602060002090600502016000909190919091506000820151816000019081611d1d9190613b86565b5060208201518160010160006101000a81548173ffffffffffffffffffffffffffffffffffffffff021916908373ffffffffffffffffffffffffffffffffffffffff1602179055506040820151816002019081611d7a9190613b86565b506060820151816003019081611d909190613b86565b506080820151816004019081611da69190613b86565b5050505b505050505050565b60008173ffffffffffffffffffffffffffffffffffffffff167f000000000000000000000000000000000000000000000000000000000000000073ffffffffffffffffffffffffffffffffffffffff1603611e5e5782604051602001611e189190613c94565b604051602081830303815290604052805190602001206001604051602001611e409190613d2e565b60405160208183030381529060405280519060200120149050611e63565b600090505b92915050565b611e71612b0b565b60005b6002805490508110156121de5782604051602001611e929190613c94565b6040516020818303038152906040528051906020012060028281548110611ebc57611ebb6138d4565b5b9060005260206000209060050201600001604051602001611edd9190613d2e565b60405160208183030381529060405280519060200120036121cb5760028181548110611f0c57611f0b6138d4565b5b90600052602060002090600502016040518060a0016040529081600082018054611f35906139a9565b80601f0160208091040260200160405190810160405280929190818152602001828054611f61906139a9565b8015611fae5780601f10611f8357610100808354040283529160200191611fae565b820191906000526020600020905b815481529060010190602001808311611f9157829003601f168201915b505050505081526020016001820160009054906101000a900473ffffffffffffffffffffffffffffffffffffffff1673ffffffffffffffffffffffffffffffffffffffff1673ffffffffffffffffffffffffffffffffffffffff16815260200160028201805461201d906139a9565b80601f0160208091040260200160405190810160405280929190818152602001828054612049906139a9565b80156120965780601f1061206b57610100808354040283529160200191612096565b820191906000526020600020905b81548152906001019060200180831161207957829003601f168201915b505050505081526020016003820180546120af906139a9565b80601f01602080910402602001604051908101604052809291908181526020018280546120db906139a9565b80156121285780601f106120fd57610100808354040283529160200191612128565b820191906000526020600020905b81548152906001019060200180831161210b57829003601f168201915b50505050508152602001600482018054612141906139a9565b80601f016020809104026020016040519081016040528092919081815260200182805461216d906139a9565b80156121ba5780601f1061218f576101008083540402835291602001916121ba565b820191906000526020600020905b81548152906001019060200180831161219d57829003601f168201915b5050505050815250509150506122f3565b80806121d690613932565b915050611e74565b506040518060a001604052806040518060400160405280600481526020017f6e6f6e650000000000000000000000000000000000000000000000000000000081525081526020013373ffffffffffffffffffffffffffffffffffffffff1681526020016040518060400160405280600481526020017f6e6f6e650000000000000000000000000000000000000000000000000000000081525081526020016040518060400160405280600481526020017f6e6f6e650000000000000000000000000000000000000000000000000000000081525081526020016040518060400160405280600181526020017f300000000000000000000000000000000000000000000000000000000000000081525081525090505b919050565b6004818154811061230857600080fd5b906000526020600020016000915090505481565b60005b6004805490508110156123f4578160048281548110612341576123406138d4565b5b9060005260206000200154036123e15760005b6005805490508110156123df578260058281548110612376576123756138d4565b5b906000526020600020906002020160000154036123cc576001600582815481106123a3576123a26138d4565b5b906000526020600020906002020160010160006101000a81548160ff0219169083151502179055505b80806123d790613932565b915050612354565b505b80806123ec90613932565b91505061231f565b5050565b600481908060018154018082558091505060019003906000526020600020016000909190919091505550565b60018054612431906139a9565b80601f016020809104026020016040519081016040528092919081815260200182805461245d906139a9565b80156124aa5780601f1061247f576101008083540402835291602001916124aa565b820191906000526020600020905b81548152906001019060200180831161248d57829003601f168201915b505050505081565b7f000000000000000000000000000000000000000000000000000000000000000081565b600080600090505b6002805490508110156125f1578273ffffffffffffffffffffffffffffffffffffffff1660028281548110612516576125156138d4565b5b906000526020600020906005020160010160009054906101000a900473ffffffffffffffffffffffffffffffffffffffff1673ffffffffffffffffffffffffffffffffffffffff16036125de57836040516020016125749190613c94565b604051602081830303815290604052805190602001206002828154811061259e5761259d6138d4565b5b90600052602060002090600502016000016040516020016125bf9190613d2e565b60405160208183030381529060405280519060200120149150506125f7565b80806125e990613932565b9150506124de565b50600090505b92915050565b600080600090505b600380549050811015612718578273ffffffffffffffffffffffffffffffffffffffff166003828154811061263d5761263c6138d4565b5b906000526020600020906004020160010160009054906101000a900473ffffffffffffffffffffffffffffffffffffffff1673ffffffffffffffffffffffffffffffffffffffff1603612705578360405160200161269b9190613c94565b60405160208183030381529060405280519060200120600382815481106126c5576126c46138d4565b5b90600052602060002090600402016000016040516020016126e69190613d2e565b604051602081830303815290604052805190602001201491505061271e565b808061271090613932565b915050612605565b50600090505b92915050565b61272c612b50565b60005b600380549050811015612a08578273ffffffffffffffffffffffffffffffffffffffff1660038281548110612767576127666138d4565b5b906000526020600020906004020160010160009054906101000a900473ffffffffffffffffffffffffffffffffffffffff1673ffffffffffffffffffffffffffffffffffffffff16036129f557600381815481106127c8576127c76138d4565b5b90600052602060002090600402016040518060800160405290816000820180546127f1906139a9565b80601f016020809104026020016040519081016040528092919081815260200182805461281d906139a9565b801561286a5780601f1061283f5761010080835404028352916020019161286a565b820191906000526020600020905b81548152906001019060200180831161284d57829003601f168201915b505050505081526020016001820160009054906101000a900473ffffffffffffffffffffffffffffffffffffffff1673ffffffffffffffffffffffffffffffffffffffff1673ffffffffffffffffffffffffffffffffffffffff1681526020016002820180546128d9906139a9565b80601f0160208091040260200160405190810160405280929190818152602001828054612905906139a9565b80156129525780601f1061292757610100808354040283529160200191612952565b820191906000526020600020905b81548152906001019060200180831161293557829003601f168201915b5050505050815260200160038201805461296b906139a9565b80601f0160208091040260200160405190810160405280929190818152602001828054612997906139a9565b80156129e45780601f106129b9576101008083540402835291602001916129e4565b820191906000526020600020905b8154815290600101906020018083116129c757829003601f168201915b505050505081525050915050612ae2565b8080612a0090613932565b91505061272f565b5060405180608001604052806040518060400160405280600481526020017f6e6f6e650000000000000000000000000000000000000000000000000000000081525081526020013373ffffffffffffffffffffffffffffffffffffffff1681526020016040518060400160405280600481526020017f6e6f6e650000000000000000000000000000000000000000000000000000000081525081526020016040518060400160405280600481526020017f6e6f6e650000000000000000000000000000000000000000000000000000000081525081525090505b919050565b60405180606001604052806060815260200160008019168152602001606081525090565b6040518060a0016040528060608152602001600073ffffffffffffffffffffffffffffffffffffffff1681526020016060815260200160608152602001606081525090565b604051806080016040528060608152602001600073ffffffffffffffffffffffffffffffffffffffff16815260200160608152602001606081525090565b6000604051905090565b600080fd5b600080fd5b600073ffffffffffffffffffffffffffffffffffffffff82169050919050565b6000612bcd82612ba2565b9050919050565b612bdd81612bc2565b8114612be857600080fd5b50565b600081359050612bfa81612bd4565b92915050565b600060208284031215612c1657612c15612b98565b5b6000612c2484828501612beb565b91505092915050565b600081519050919050565b600082825260208201905092915050565b6000819050602082019050919050565b600081519050919050565b600082825260208201905092915050565b60005b83811015612c93578082015181840152602081019050612c78565b60008484015250505050565b6000601f19601f8301169050919050565b6000612cbb82612c59565b612cc58185612c64565b9350612cd5818560208601612c75565b612cde81612c9f565b840191505092915050565b6000819050919050565b612cfc81612ce9565b82525050565b60006060830160008301518482036000860152612d1f8282612cb0565b9150506020830151612d346020860182612cf3565b5060408301518482036040860152612d4c8282612cb0565b9150508091505092915050565b6000612d658383612d02565b905092915050565b6000602082019050919050565b6000612d8582612c2d565b612d8f8185612c38565b935083602082028501612da185612c49565b8060005b85811015612ddd5784840389528151612dbe8582612d59565b9450612dc983612d6d565b925060208a01995050600181019050612da5565b50829750879550505050505092915050565b60006020820190508181036000830152612e098184612d7a565b905092915050565b6000819050919050565b612e2481612e11565b8114612e2f57600080fd5b50565b600081359050612e4181612e1b565b92915050565b600060208284031215612e5d57612e5c612b98565b5b6000612e6b84828501612e32565b91505092915050565b600082825260208201905092915050565b6000612e9082612c59565b612e9a8185612e74565b9350612eaa818560208601612c75565b612eb381612c9f565b840191505092915050565b612ec781612bc2565b82525050565b600060a0820190508181036000830152612ee78188612e85565b9050612ef66020830187612ebe565b8181036040830152612f088186612e85565b90508181036060830152612f1c8185612e85565b90508181036080830152612f308184612e85565b90509695505050505050565b600080fd5b600080fd5b7f4e487b7100000000000000000000000000000000000000000000000000000000600052604160045260246000fd5b612f7e82612c9f565b810181811067ffffffffffffffff82111715612f9d57612f9c612f46565b5b80604052505050565b6000612fb0612b8e565b9050612fbc8282612f75565b919050565b600067ffffffffffffffff821115612fdc57612fdb612f46565b5b612fe582612c9f565b9050602081019050919050565b82818337600083830152505050565b600061301461300f84612fc1565b612fa6565b9050828152602081018484840111156130305761302f612f41565b5b61303b848285612ff2565b509392505050565b600082601f83011261305857613057612f3c565b5b8135613068848260208601613001565b91505092915050565b61307a81612ce9565b811461308557600080fd5b50565b60008135905061309781613071565b92915050565b6000806000606084860312156130b6576130b5612b98565b5b600084013567ffffffffffffffff8111156130d4576130d3612b9d565b5b6130e086828701613043565b93505060206130f186828701613088565b925050604084013567ffffffffffffffff81111561311257613111612b9d565b5b61311e86828701613043565b9150509250925092565b61313181612ce9565b82525050565b60008115159050919050565b61314c81613137565b82525050565b60006040820190506131676000830185613128565b6131746020830184613143565b9392505050565b61318481612bc2565b82525050565b600060a08301600083015184820360008601526131a78282612cb0565b91505060208301516131bc602086018261317b565b50604083015184820360408601526131d48282612cb0565b915050606083015184820360608601526131ee8282612cb0565b915050608083015184820360808601526132088282612cb0565b9150508091505092915050565b6000602082019050818103600083015261322f818461318a565b905092915050565b6000806040838503121561324e5761324d612b98565b5b600061325c85828601612beb565b925050602061326d85828601612e32565b9150509250929050565b600060608201905081810360008301526132918186612e85565b90506132a06020830185613128565b81810360408301526132b28184612e85565b9050949350505050565b600080600080608085870312156132d6576132d5612b98565b5b600085013567ffffffffffffffff8111156132f4576132f3612b9d565b5b61330087828801613043565b945050602061331187828801612beb565b935050604085013567ffffffffffffffff81111561333257613331612b9d565b5b61333e87828801613043565b925050606085013567ffffffffffffffff81111561335f5761335e612b9d565b5b61336b87828801613043565b91505092959194509250565b600081519050919050565b600082825260208201905092915050565b6000819050602082019050919050565b60006133af8383612cf3565b60208301905092915050565b6000602082019050919050565b60006133d382613377565b6133dd8185613382565b93506133e883613393565b8060005b8381101561341957815161340088826133a3565b975061340b836133bb565b9250506001810190506133ec565b5085935050505092915050565b6000602082019050818103600083015261344081846133c8565b905092915050565b600081519050919050565b600082825260208201905092915050565b6000819050602082019050919050565b600060a08301600083015184820360008601526134918282612cb0565b91505060208301516134a6602086018261317b565b50604083015184820360408601526134be8282612cb0565b915050606083015184820360608601526134d88282612cb0565b915050608083015184820360808601526134f28282612cb0565b9150508091505092915050565b600061350b8383613474565b905092915050565b6000602082019050919050565b600061352b82613448565b6135358185613453565b93508360208202850161354785613464565b8060005b85811015613583578484038952815161356485826134ff565b945061356f83613513565b925060208a0199505060018101905061354b565b50829750879550505050505092915050565b600060208201905081810360008301526135af8184613520565b905092915050565b600060808201905081810360008301526135d18187612e85565b90506135e06020830186612ebe565b81810360408301526135f28185612e85565b905081810360608301526136068184612e85565b905095945050505050565b600080600080600060a0868803121561362d5761362c612b98565b5b600086013567ffffffffffffffff81111561364b5761364a612b9d565b5b61365788828901613043565b955050602061366888828901612beb565b945050604086013567ffffffffffffffff81111561368957613688612b9d565b5b61369588828901613043565b935050606086013567ffffffffffffffff8111156136b6576136b5612b9d565b5b6136c288828901613043565b925050608086013567ffffffffffffffff8111156136e3576136e2612b9d565b5b6136ef88828901613043565b9150509295509295909350565b6000806040838503121561371357613712612b98565b5b600083013567ffffffffffffffff81111561373157613730612b9d565b5b61373d85828601613043565b925050602061374e85828601612beb565b9150509250929050565b600060208201905061376d6000830184613143565b92915050565b60006020828403121561378957613788612b98565b5b600082013567ffffffffffffffff8111156137a7576137a6612b9d565b5b6137b384828501613043565b91505092915050565b60006020820190506137d16000830184613128565b92915050565b6000602082840312156137ed576137ec612b98565b5b60006137fb84828501613088565b91505092915050565b6000602082019050818103600083015261381e8184612e85565b905092915050565b600060208201905061383b6000830184612ebe565b92915050565b6000608083016000830151848203600086015261385e8282612cb0565b9150506020830151613873602086018261317b565b506040830151848203604086015261388b8282612cb0565b915050606083015184820360608601526138a58282612cb0565b9150508091505092915050565b600060208201905081810360008301526138cc8184613841565b905092915050565b7f4e487b7100000000000000000000000000000000000000000000000000000000600052603260045260246000fd5b7f4e487b7100000000000000000000000000000000000000000000000000000000600052601160045260246000fd5b600061393d82612e11565b91507fffffffffffffffffffffffffffffffffffffffffffffffffffffffffffffffff820361396f5761396e613903565b5b600182019050919050565b7f4e487b7100000000000000000000000000000000000000000000000000000000600052602260045260246000fd5b600060028204905060018216806139c157607f821691505b6020821081036139d4576139d361397a565b5b50919050565b60008190508160005260206000209050919050565b60006020601f8301049050919050565b600082821b905092915050565b600060088302613a3c7fffffffffffffffffffffffffffffffffffffffffffffffffffffffffffffffff826139ff565b613a4686836139ff565b95508019841693508086168417925050509392505050565b6000819050919050565b6000613a83613a7e613a7984612e11565b613a5e565b612e11565b9050919050565b6000819050919050565b613a9d83613a68565b613ab1613aa982613a8a565b848454613a0c565b825550505050565b600090565b613ac6613ab9565b613ad1818484613a94565b505050565b5b81811015613af557613aea600082613abe565b600181019050613ad7565b5050565b601f821115613b3a57613b0b816139da565b613b14846139ef565b81016020851015613b23578190505b613b37613b2f856139ef565b830182613ad6565b50505b505050565b600082821c905092915050565b6000613b5d60001984600802613b3f565b1980831691505092915050565b6000613b768383613b4c565b9150826002028217905092915050565b613b8f82612c59565b67ffffffffffffffff811115613ba857613ba7612f46565b5b613bb282546139a9565b613bbd828285613af9565b600060209050601f831160018114613bf05760008415613bde578287015190505b613be88582613b6a565b865550613c50565b601f198416613bfe866139da565b60005b82811015613c2657848901518255600182019150602085019450602081019050613c01565b86831015613c435784890151613c3f601f891682613b4c565b8355505b6001600288020188555050505b505050505050565b600081905092915050565b6000613c6e82612c59565b613c788185613c58565b9350613c88818560208601612c75565b80840191505092915050565b6000613ca08284613c63565b915081905092915050565b60008154613cb8816139a9565b613cc28186613c58565b94506001821660008114613cdd5760018114613cf257613d25565b60ff1983168652811515820286019350613d25565b613cfb856139da565b60005b83811015613d1d57815481890152600182019150602081019050613cfe565b838801955050505b50505092915050565b6000613d3a8284613cab565b91508190509291505056fea26469706673582212204e2b1e8d623bd1a39eb0fc8f6877a5252cba9e61051175c5ef514f6f4c1e0f5964736f6c63430008120033",
  "devdoc": {
    "kind": "dev",
    "methods": {},
    "version": 1
  },
  "userdoc": {
    "kind": "user",
    "methods": {},
    "version": 1
  },
  "storageLayout": {
    "storage": [
      {
        "astId": 39,
        "contract": "contracts/Ebv.sol:Ebv",
        "label": "userData",
        "offset": 0,
        "slot": "0",
        "type": "t_mapping(t_address,t_array(t_struct(document)28_storage)dyn_storage)"
      },
      {
        "astId": 58,
        "contract": "contracts/Ebv.sol:Ebv",
        "label": "i_ownerName",
        "offset": 0,
        "slot": "1",
        "type": "t_string_storage"
      },
      {
        "astId": 62,
        "contract": "contracts/Ebv.sol:Ebv",
        "label": "candidate",
        "offset": 0,
        "slot": "2",
        "type": "t_array(t_struct(user)12_storage)dyn_storage"
      },
      {
        "astId": 66,
        "contract": "contracts/Ebv.sol:Ebv",
        "label": "recruiter",
        "offset": 0,
        "slot": "3",
        "type": "t_array(t_struct(user2)21_storage)dyn_storage"
      },
      {
        "astId": 69,
        "contract": "contracts/Ebv.sol:Ebv",
        "label": "arrHash",
        "offset": 0,
        "slot": "4",
        "type": "t_array(t_bytes32)dyn_storage"
      },
      {
        "astId": 73,
        "contract": "contracts/Ebv.sol:Ebv",
        "label": "VerifiedHash",
        "offset": 0,
        "slot": "5",
        "type": "t_array(t_struct(verifyStat)33_storage)dyn_storage"
      }
    ],
    "types": {
      "t_address": {
        "encoding": "inplace",
        "label": "address",
        "numberOfBytes": "20"
      },
      "t_array(t_bytes32)dyn_storage": {
        "base": "t_bytes32",
        "encoding": "dynamic_array",
        "label": "bytes32[]",
        "numberOfBytes": "32"
      },
      "t_array(t_struct(document)28_storage)dyn_storage": {
        "base": "t_struct(document)28_storage",
        "encoding": "dynamic_array",
        "label": "struct Ebv.document[]",
        "numberOfBytes": "32"
      },
      "t_array(t_struct(user)12_storage)dyn_storage": {
        "base": "t_struct(user)12_storage",
        "encoding": "dynamic_array",
        "label": "struct Ebv.user[]",
        "numberOfBytes": "32"
      },
      "t_array(t_struct(user2)21_storage)dyn_storage": {
        "base": "t_struct(user2)21_storage",
        "encoding": "dynamic_array",
        "label": "struct Ebv.user2[]",
        "numberOfBytes": "32"
      },
      "t_array(t_struct(verifyStat)33_storage)dyn_storage": {
        "base": "t_struct(verifyStat)33_storage",
        "encoding": "dynamic_array",
        "label": "struct Ebv.verifyStat[]",
        "numberOfBytes": "32"
      },
      "t_bool": {
        "encoding": "inplace",
        "label": "bool",
        "numberOfBytes": "1"
      },
      "t_bytes32": {
        "encoding": "inplace",
        "label": "bytes32",
        "numberOfBytes": "32"
      },
      "t_mapping(t_address,t_array(t_struct(document)28_storage)dyn_storage)": {
        "encoding": "mapping",
        "key": "t_address",
        "label": "mapping(address => struct Ebv.document[])",
        "numberOfBytes": "32",
        "value": "t_array(t_struct(document)28_storage)dyn_storage"
      },
      "t_string_storage": {
        "encoding": "bytes",
        "label": "string",
        "numberOfBytes": "32"
      },
      "t_struct(document)28_storage": {
        "encoding": "inplace",
        "label": "struct Ebv.document",
        "members": [
          {
            "astId": 23,
            "contract": "contracts/Ebv.sol:Ebv",
            "label": "docName",
            "offset": 0,
            "slot": "0",
            "type": "t_string_storage"
          },
          {
            "astId": 25,
            "contract": "contracts/Ebv.sol:Ebv",
            "label": "docHash",
            "offset": 0,
            "slot": "1",
            "type": "t_bytes32"
          },
          {
            "astId": 27,
            "contract": "contracts/Ebv.sol:Ebv",
            "label": "ipfs",
            "offset": 0,
            "slot": "2",
            "type": "t_string_storage"
          }
        ],
        "numberOfBytes": "96"
      },
      "t_struct(user)12_storage": {
        "encoding": "inplace",
        "label": "struct Ebv.user",
        "members": [
          {
            "astId": 3,
            "contract": "contracts/Ebv.sol:Ebv",
            "label": "name",
            "offset": 0,
            "slot": "0",
            "type": "t_string_storage"
          },
          {
            "astId": 5,
            "contract": "contracts/Ebv.sol:Ebv",
            "label": "add",
            "offset": 0,
            "slot": "1",
            "type": "t_address"
          },
          {
            "astId": 7,
            "contract": "contracts/Ebv.sol:Ebv",
            "label": "email",
            "offset": 0,
            "slot": "2",
            "type": "t_string_storage"
          },
          {
            "astId": 9,
            "contract": "contracts/Ebv.sol:Ebv",
            "label": "qualification",
            "offset": 0,
            "slot": "3",
            "type": "t_string_storage"
          },
          {
            "astId": 11,
            "contract": "contracts/Ebv.sol:Ebv",
            "label": "yearPO",
            "offset": 0,
            "slot": "4",
            "type": "t_string_storage"
          }
        ],
        "numberOfBytes": "160"
      },
      "t_struct(user2)21_storage": {
        "encoding": "inplace",
        "label": "struct Ebv.user2",
        "members": [
          {
            "astId": 14,
            "contract": "contracts/Ebv.sol:Ebv",
            "label": "name",
            "offset": 0,
            "slot": "0",
            "type": "t_string_storage"
          },
          {
            "astId": 16,
            "contract": "contracts/Ebv.sol:Ebv",
            "label": "add",
            "offset": 0,
            "slot": "1",
            "type": "t_address"
          },
          {
            "astId": 18,
            "contract": "contracts/Ebv.sol:Ebv",
            "label": "email",
            "offset": 0,
            "slot": "2",
            "type": "t_string_storage"
          },
          {
            "astId": 20,
            "contract": "contracts/Ebv.sol:Ebv",
            "label": "company",
            "offset": 0,
            "slot": "3",
            "type": "t_string_storage"
          }
        ],
        "numberOfBytes": "128"
      },
      "t_struct(verifyStat)33_storage": {
        "encoding": "inplace",
        "label": "struct Ebv.verifyStat",
        "members": [
          {
            "astId": 30,
            "contract": "contracts/Ebv.sol:Ebv",
            "label": "hashValue",
            "offset": 0,
            "slot": "0",
            "type": "t_bytes32"
          },
          {
            "astId": 32,
            "contract": "contracts/Ebv.sol:Ebv",
            "label": "status",
            "offset": 0,
            "slot": "1",
            "type": "t_bool"
          }
        ],
        "numberOfBytes": "64"
      }
    }
  }
}